S01700004763634170706C69636174696F6E312E737265635B
S11300000C942A000C9447000C9447000C9447006D
S11300100C9447000C9447000C9447000C94470040
S11300200C9447000C9447000C9447000C94470030
S11300300C9447000C9447000C9447000C94470020
S11300400C9447000C9447000C9447000C94470010
S11300500C94470011241FBECFE5D8E0DEBFCDBF0E
S113006010E0A0E6B0E0E2EAF8E002C005900D92EC
S1130070A037B107D9F710E0A0E7B0E001C01D92A6
S1130080A037B107E1F70E94A7020C944F040C9427
S113009000003E9A379A329A319A309A0895369AE5
S11300A0349BFECF349A84B190E045B1342F20E0E4
S11300B0822B932B089540E00E94660008950E94CD
S11300C08801089541E00E94F7000895843409F4FA
S11300D071C0853448F4823499F1833408F04DC0FA
S11300E0813409F083C00FC0823651F1833620F485
S11300F0813609F07BC007C0833609F43EC08436DC
S113010009F074C057C0413069F42AB381E090E02B
S1130110AC0102C0440F551F6A95E2F7BA01622B85
S11301206ABB08952AB381E090E0AC0102C0440F99
S1130130551F6A95E2F7BA01609562236ABB089578
S1130140413069F427B381E090E0AC0102C0440F70
S1130150551F6A95E2F7BA01622B67BB089527B36E
S113016081E090E0AC0102C0440F551F6A95E2F7AC
S1130170BA016095622367BB0895413069F424B3E2
S113018081E090E0AC0102C0440F551F6A95E2F78C
S1130190BA01622B64BB089524B381E090E0AC0102
S11301A002C0440F551F6A95E2F7BA0160956223B5
S11301B064BB0895413069F421B381E090E0AC015F
S11301C002C0440F551F6A95E2F7BA01622B61BB66
S11301D0089521B381E090E0AC0102C0440F551FA3
S11301E06A95E2F7BA016095622361BB089584348D
S11301F009F471C0853448F4823499F1833408F0E9
S11302004DC0813409F083C00FC0823651F183366A
S113021020F4813609F07BC007C0833609F43EC060
S1130220843609F074C057C0413069F42BB381E0BF
S113023090E0AC0102C0440F551F6A95E2F7BA0181
S1130240622B6BBB08952BB381E090E0AC0102C03C
S1130250440F551F6A95E2F7BA01609562236BBBA0
S11302600895413069F428B381E090E0AC0102C004
S1130270440F551F6A95E2F7BA01622B68BB0895D3
S113028028B381E090E0AC0102C0440F551F6A9589
S1130290E2F7BA016095622368BB0895413069F4BE
S11302A025B381E090E0AC0102C0440F551F6A956C
S11302B0E2F7BA01622B65BB089525B381E090E0B3
S11302C0AC0102C0440F551F6A95E2F7BA0160956C
S11302D0622365BB0895413069F422B381E090E064
S11302E0AC0102C0440F551F6A95E2F7BA01622BB4
S11302F062BB089522B381E090E0AC0102C0440FD8
S1130300551F6A95E2F7BA016095622362BB0895AE
S1130310843409F451C0853440F4823439F183348F
S1130320C0F5813409F05AC00EC08236F9F0833624
S113033020F4813609F052C006C0833651F1843668
S113034009F04CC039C029B381E090E0062E02C008
S1130350880F991F0A94E2F730E08223932302C0A6
S1130360959587956A95E2F7982F38C026B381E072
S113037090E0062E02C0880F991F0A94E2F730E03D
S11303808223932302C0959587956A95E2F7982F67
S113039025C023B381E090E0062E02C0880F991F88
S11303A00A94E2F730E08223932302C0959587955F
S11303B06A95E2F7982F12C020B381E090E0062EF0
S11303C002C0880F991F0A94E2F730E08223932336
S11303D002C0959587956A95E2F7982F892F08951D
S11303E0843409F43DC0853440F48234F9F0833414
S11303F050F5813409F040C00CC08236B9F0833620
S113040018F48136C9F505C08336E9F08436A1F5C0
S113041027C02BB381E090E0AC0102C0440F551F0C
S11304206A95E2F7BA0162276BBB089528B381E0AD
S113043090E0AC0102C0440F551F6A95E2F7BA017F
S1130440622768BB089525B381E090E0AC0102C047
S1130450440F551F6A95E2F7BA01622765BB0895F8
S113046022B381E090E0AC0102C0440F551F6A95AD
S1130470E2F7BA01622762BB08958434D9F0853467
S113048038F4823499F0833498F48134A1F40CC0A4
S1130490823661F0833618F4813669F405C08336F8
S11304A039F0843641F406C06ABB089567BB0895E9
S11304B064BB089561BB08958434D9F0853438F45D
S11304C0823499F0833498F48134A1F40CC08236D8
S11304D061F0833618F4813669F405C0833639F047
S11304E0843641F406C06BBB089568BB089565BBB0
S11304F0089562BB08958434D9F0853438F4823485
S113050099F0833498F48134A1F40CC0823661F0FC
S1130510833618F4813669F405C0833639F084369D
S113052041F406C089B3089586B3089583B308954A
S113053080B308958EBB9FBB6DBBE29AE19AE199AB
S1130540FECF08958EBB9FBBE09A8DB308950E94A1
S1130550490083E660E00E94400483E661E00E9473
S1130560400483E662E00E94400483E663E00E9464
S1130570400483E664E00E94400483E665E00E9450
S1130580400483E666E00E94400483E667E00E943C
S113059040040E944F0085BBFCCF84E460E041E04E
S11305A00E94660084E461E041E00E94660084E405
S11305B062E041E00E94660084E463E041E00E945E
S11305C0660084E464E040E00E94660084E465E040
S11305D040E00E94660084E466E040E00E94660019
S11305E084E467E040E00E94660084E464E041E063
S11305F00E94F70084E465E041E00E94F70084E48F
S113060066E041E00E94F70084E467E041E00E9474
S1130610F70008950F931F93CF93DF93CDB7DEB701
S113062060970FB6F894DEBF0FBECDBFDE01119602
S1130630E0E6F0E080E101900D928150E1F700E006
S113064084E460E041E00E94F70084E461E041E07A
S11306500E94F70084E462E041E00E94F70084E431
S113066063E041E00E94F70084E4602F40E00E94D0
S1130670F70010E0612F6C5F84E40E9488018823F6
S113068061F4E02FF0E0EE0FFF1FEE0FFF1FE10F0C
S1130690F11DEC0FFD1F818104C01F5F143051F761
S11306A00BC060960FB6F894DEBF0FBECDBFDF91CE
S11306B0CF911F910F9108950F5F043009F68FEFCA
S11306C0F0CF82E660E041E00E94F7008FE99FE00E
S11306D00197F1F700C0000082E660E040E00E946C
S11306E0F7008FE99FE00197F1F700C0000008953B
S11306F0CF93C82F6BB3807F6F70682B82E60E9404
S11307005C0282E661E040E00E94F7000E9461031F
S11307106BB3C295C07F6F706C2B82E60E945C0243
S113072082E661E040E00E94F7000E9461038FECE2
S113073097E00197F1F700C00000CF9108958FEF83
S113074091EEA4E081509040A040E1F700C0000089
S113075082E66FEF0E943D0282E662E040E00E9482
S1130760F70082E00E947803AFE1BEE41197F1F74D
S113077000C0000088E20E9478038FEC97E00197A4
S1130780F1F700C000008EE00E947803AFECB7E000
S11307901197F1F700C0000081E00E9478038FE117
S11307A09EE40197F1F700C0000086E00E94780300
S11307B0AFECB7E01197F1F700C000000895CF93B4
S11307C0C82F6BB3807F6F70682B82E60E945C0237
S11307D082E661E041E00E94F7000E9461036BB38E
S11307E0C295C07F6F706C2B82E60E945C0282E629
S11307F061E041E00E94F7000E9461038FEC97E002
S11308000197F1F700C00000CF910895CF93DF93D3
S1130810EC018881882331F021960E94DF038991BD
S11308208823D9F7DF91CF91089581E00E9478035E
S11308308FE19EE40197F1F700C000000895282F8E
S11308402150223070F4613170F4662371F08130EC
S113085019F4962F91580AC0823041F4962F91547E
S113086005C090E803C090E801C090E8892F0E9479
S113087078038FEC97E00197F1F700C0000008952A
S113088041E00E946600089541E00E94F700089547
S113089040E00E94F70008950E94F0010895F89442
S10508A0FFCF84
S11308A23738392F3435362A0132332D41303D2B36
S9030000FC
