S01700004763634170706C69636174696F6E322E737265635A
S11300000C942A000C9447000C9447000C9447006D
S11300100C9447000C9447000C9447000C94470040
S11300200C9447000C9447000C9447000C94470030
S11300300C9447000C9447000C9447000C94470020
S11300400C9447000C9447000C9447000C94470010
S11300500C94470011241FBECFE5D8E0DEBFCDBF0E
S113006010E0A0E6B0E0E6E8F6E002C005900D92EC
S1130070A036B107D9F710E0A0E6B0E001C01D92A8
S1130080A036B107E1F70E9408030C9441030C94D5
S11300900000CF93C82F60E041E00E946E008C2FD7
S11300A061E041E00E946E008C2F62E041E00E941A
S11300B06E008C2F63E041E00E946E00CF910895A2
S11300C00E94D502089540E00E946E0008950E94A7
S11300D09001089541E00E94FF000895843409F4DA
S11300E071C0853448F4823499F1833408F04DC0EA
S11300F0813409F083C00FC0823651F1833620F475
S1130100813609F07BC007C0833609F43EC08436CB
S113011009F074C057C0413069F42AB381E090E01B
S1130120AC0102C0440F551F6A95E2F7BA01622B75
S11301306ABB08952AB381E090E0AC0102C0440F89
S1130140551F6A95E2F7BA01609562236ABB089568
S1130150413069F427B381E090E0AC0102C0440F60
S1130160551F6A95E2F7BA01622B67BB089527B35E
S113017081E090E0AC0102C0440F551F6A95E2F79C
S1130180BA016095622367BB0895413069F424B3D2
S113019081E090E0AC0102C0440F551F6A95E2F77C
S11301A0BA01622B64BB089524B381E090E0AC01F2
S11301B002C0440F551F6A95E2F7BA0160956223A5
S11301C064BB0895413069F421B381E090E0AC014F
S11301D002C0440F551F6A95E2F7BA01622B61BB56
S11301E0089521B381E090E0AC0102C0440F551F93
S11301F06A95E2F7BA016095622361BB089584347D
S113020009F471C0853448F4823499F1833408F0D8
S11302104DC0813409F083C00FC0823651F183365A
S113022020F4813609F07BC007C0833609F43EC050
S1130230843609F074C057C0413069F42BB381E0AF
S113024090E0AC0102C0440F551F6A95E2F7BA0171
S1130250622B6BBB08952BB381E090E0AC0102C02C
S1130260440F551F6A95E2F7BA01609562236BBB90
S11302700895413069F428B381E090E0AC0102C0F4
S1130280440F551F6A95E2F7BA01622B68BB0895C3
S113029028B381E090E0AC0102C0440F551F6A9579
S11302A0E2F7BA016095622368BB0895413069F4AE
S11302B025B381E090E0AC0102C0440F551F6A955C
S11302C0E2F7BA01622B65BB089525B381E090E0A3
S11302D0AC0102C0440F551F6A95E2F7BA0160955C
S11302E0622365BB0895413069F422B381E090E054
S11302F0AC0102C0440F551F6A95E2F7BA01622BA4
S113030062BB089522B381E090E0AC0102C0440FC7
S1130310551F6A95E2F7BA016095622362BB08959E
S1130320843409F451C0853440F4823439F183347F
S1130330C0F5813409F05AC00EC08236F9F0833614
S113034020F4813609F052C006C0833651F1843658
S113035009F04CC039C029B381E090E0062E02C0F8
S1130360880F991F0A94E2F730E08223932302C096
S1130370959587956A95E2F7982F38C026B381E062
S113038090E0062E02C0880F991F0A94E2F730E02D
S11303908223932302C0959587956A95E2F7982F57
S11303A025C023B381E090E0062E02C0880F991F78
S11303B00A94E2F730E08223932302C0959587954F
S11303C06A95E2F7982F12C020B381E090E0062EE0
S11303D002C0880F991F0A94E2F730E08223932326
S11303E002C0959587956A95E2F7982F892F08950D
S11303F0843409F43DC0853440F48234F9F0833404
S113040050F5813409F040C00CC08236B9F083360F
S113041018F48136C9F505C08336E9F08436A1F5B0
S113042027C02BB381E090E0AC0102C0440F551FFC
S11304306A95E2F7BA0162276BBB089528B381E09D
S113044090E0AC0102C0440F551F6A95E2F7BA016F
S1130450622768BB089525B381E090E0AC0102C037
S1130460440F551F6A95E2F7BA01622765BB0895E8
S113047022B381E090E0AC0102C0440F551F6A959D
S1130480E2F7BA01622762BB08958434D9F0853457
S113049038F4823499F0833498F48134A1F40CC094
S11304A0823661F0833618F4813669F405C08336E8
S11304B039F0843641F406C06ABB089567BB0895D9
S11304C064BB089561BB08958434D9F0853438F44D
S11304D0823499F0833498F48134A1F40CC08236C8
S11304E061F0833618F4813669F405C0833639F037
S11304F0843641F406C06BBB089568BB089565BBA0
S1130500089562BB08958434D9F0853438F4823474
S113051099F0833498F48134A1F40CC0823661F0EC
S1130520833618F4813669F405C0833639F084368D
S113053041F406C089B3089586B3089583B308953A
S113054080B30895843451F1853438F48234C1F091
S11305508334E8F4813441F50CC0823689F0833663
S113056018F4813609F505C0833689F08436E1F440
S113057015C08BB38F708BBB8BB3682B6BBB08958B
S113058088B38F7088BB88B3682B68BB089585B324
S11305908F7085BB85B3682B65BB089582B38F705C
S11305A082BB82B3682B62BB0895843451F18534D5
S11305B038F48234C1F08334E8F4813441F50CC05A
S11305C0823689F0833618F4813609F505C08336FE
S11305D089F08436E1F415C08BB3807F8BBB8BB379
S11305E0682B6BBB089588B3807F88BB88B3682B66
S11305F068BB089585B3807F85BB85B3682B65BBD5
S1130600089582B3807F82BB82B3682B62BB089556
S113061084E60E94490082E660E00E9463008FEF56
S113062084BB8AEA85BBC0E003C0CA3008F0C0E0DE
S113063082E660E00E9467008130B9F78FEF94E3AF
S1130640ACE081509040A040E1F700C0000082E699
S113065060E00E946700813071F48FEF94E3ACE0B6
S113066081509040A040E1F700C0000084E66C2F68
S11306700E946000DACF84E66C2F0E946000CF5F96
S1090680D4CFF894FFCF73
S9030000FC
