:100000000C942A000C9447000C9447000C94470071
:100010000C9447000C9447000C9447000C94470044
:100020000C9447000C9447000C9447000C94470034
:100030000C9447000C9447000C9447000C94470024
:100040000C9447000C9447000C9447000C94470014
:100050000C94470011241FBECFE5D8E0DEBFCDBF12
:1000600010E0A0E6B0E0EAE8F7E002C005900D92EB
:10007000A036B107D9F710E0A0E6B0E001C01D92AC
:10008000A036B107E1F70E9497030C94C3030C94C8
:100090000000843409F471C0853448F4823499F145
:1000A000833408F04DC0813409F083C00FC082361C
:1000B00051F1833620F4813609F07BC007C08336C6
:1000C00009F43EC0843609F074C057C0413069F469
:1000D0002AB381E090E0AC0102C0440F551F6A953D
:1000E000E2F7BA01622B6ABB08952AB381E090E07F
:1000F000AC0102C0440F551F6A95E2F7BA01609542
:1001000062236ABB0895413069F427B381E090E02F
:10011000AC0102C0440F551F6A95E2F7BA01622B89
:1001200067BB089527B381E090E0AC0102C0440FA3
:10013000551F6A95E2F7BA016095622367BB08957F
:10014000413069F424B381E090E0AC0102C0440F77
:10015000551F6A95E2F7BA01622B64BB089524B378
:1001600081E090E0AC0102C0440F551F6A95E2F7B0
:10017000BA016095622364BB0895413069F421B3EC
:1001800081E090E0AC0102C0440F551F6A95E2F790
:10019000BA01622B61BB089521B381E090E0AC010C
:1001A00002C0440F551F6A95E2F7BA0160956223B9
:1001B00061BB0895843409F471C0853448F48234F5
:1001C00099F1833408F04DC0813409F083C00FC029
:1001D000823651F1833620F4813609F07BC007C0A6
:1001E000833609F43EC0843609F074C057C04130EC
:1001F00069F42BB381E090E0AC0102C0440F551FBD
:100200006A95E2F7BA01622B6BBB08952BB381E0CC
:1002100090E0AC0102C0440F551F6A95E2F7BA01A5
:10022000609562236BBB0895413069F428B381E087
:1002300090E0AC0102C0440F551F6A95E2F7BA0185
:10024000622B68BB089528B381E090E0AC0102C046
:10025000440F551F6A95E2F7BA016095622368BBA7
:100260000895413069F425B381E090E0AC0102C00B
:10027000440F551F6A95E2F7BA01622B65BB0895DA
:1002800025B381E090E0AC0102C0440F551F6A9590
:10029000E2F7BA016095622365BB0895413069F4C5
:1002A00022B381E090E0AC0102C0440F551F6A9573
:1002B000E2F7BA01622B62BB089522B381E090E0BD
:1002C000AC0102C0440F551F6A95E2F7BA01609570
:1002D000622362BB0895843409F451C0853440F42C
:1002E000823439F18334C0F5813409F05AC00EC02C
:1002F0008236F9F0833620F4813609F052C006C008
:10030000833651F1843609F04CC039C029B381E0FD
:1003100090E0062E02C0880F991F0A94E2F730E0A1
:100320008223932302C0959587956A95E2F7982FCB
:1003300038C026B381E090E0062E02C0880F991FD6
:100340000A94E2F730E08223932302C095958795C3
:100350006A95E2F7982F25C023B381E090E0062E3E
:1003600002C0880F991F0A94E2F730E0822393239A
:1003700002C0959587956A95E2F7982F12C020B331
:1003800081E090E0062E02C0880F991F0A94E2F7E0
:1003900030E08223932302C0959587956A95E2F712
:1003A000982F892F0895843409F43DC0853440F492
:1003B0008234F9F0833450F5813409F040C00CC028
:1003C0008236B9F0833618F48136C9F505C0833614
:1003D000E9F08436A1F527C02BB381E090E0AC01B1
:1003E00002C0440F551F6A95E2F7BA0162276BBB42
:1003F000089528B381E090E0AC0102C0440F551F7E
:100400006A95E2F7BA01622768BB089525B381E0D7
:1004100090E0AC0102C0440F551F6A95E2F7BA01A3
:10042000622765BB089522B381E090E0AC0102C071
:10043000440F551F6A95E2F7BA01622762BB08951F
:100440008434D9F0853438F4823499F0833498F4C4
:100450008134A1F40CC0823661F0833618F4813601
:1004600069F405C0833639F0843641F406C06ABBAE
:10047000089567BB089564BB089561BB08958434F3
:10048000D9F0853438F4823499F0833498F4813487
:10049000A1F40CC0823661F0833618F4813669F419
:1004A00005C0833639F0843641F406C06BBB08952D
:1004B00068BB089565BB089562BB08958434D9F084
:1004C000853438F4823499F0833498F48134A1F47B
:1004D0000CC0823661F0833618F4813669F405C0A9
:1004E000833639F0843641F406C089B3089586B363
:1004F000089583B3089580B308959B01AC0160E033
:1005000072E18AE790E00E94A103DA01C9014097F5
:10051000A109B109B695A7959795879580B911B8A6
:10052000089584EA86BF06B607FEFDCF089584E9E4
:1005300086BF089583B984E886BF06B607FEFDCF5F
:10054000089583B984E886BF06B607FEFDCF0895F7
:1005500082B984EC86BF089584EC86BF06B607FE98
:10056000FDCF84EC86BF06B607FEFDCF83B10895AC
:1005700081E660E041E00E94DA008FE99FE00197A8
:10058000F1F700C0000081E660E040E00E94DA0080
:100590008FE99FE00197F1F700C000000895CF9325
:1005A000C82F6BB3807F6F70682B81E60E943F027B
:1005B00081E661E040E00E94DA000E94B8026BB37D
:1005C000C295C07F6F706C2B81E60E943F0281E66E
:1005D00061E040E00E94DA000E94B8028FEC97E0F0
:1005E0000197F1F700C00000CF9108958FEF91EED1
:1005F000A4E081509040A040E1F700C0000081E6F7
:100600006FEF0E94200281E662E040E00E94DA0083
:1006100082E00E94CF02AFE1BEE41197F1F700C083
:10062000000088E20E94CF028FEC97E00197F1F77B
:1006300000C000008EE00E94CF02AFECB7E011973F
:10064000F1F700C0000081E00E94CF028FE19EE43C
:100650000197F1F700C0000086E00E94CF02AFECE6
:10066000B7E01197F1F700C000000895CF93C82FAD
:100670006BB3807F6F70682B81E60E943F0281E63A
:1006800061E041E00E94DA000E94B8026BB3C295BB
:10069000C07F6F706C2B81E60E943F0281E661E0B3
:1006A00041E00E94DA000E94B8028FEC97E00197C7
:1006B000F1F700C00000CF910895CF93DF93EC01D4
:1006C0008881882331F021960E94360389918823FE
:1006D000D9F7DF91CF91089581E00E94CF028FE199
:1006E0009EE40197F1F700C000000895282F2150E3
:1006F000223070F4613170F4662371F0813019F4A6
:10070000962F91580AC0823041F4962F915405C01B
:1007100090E803C090E801C090E8892F0E94CF02C2
:100720008FEC97E00197F1F700C00000089580EE8C
:100730000E94A8020E94F6020E94AC020E943603A8
:10074000FBCFA1E21A2EAA1BBB1BFD010DC0AA1FE5
:10075000BB1FEE1FFF1FA217B307E407F50720F02A
:10076000A21BB30BE40BF50B661F771F881F991FA5
:100770001A9469F760957095809590959B01AC01EE
:0A078000BD01CF010895F894FFCFEA
:00000001FF
