:100000000C942A000C9447000C9447000C94470071
:100010000C9447000C9447000C9447000C94470044
:100020000C9447000C9447000C9447000C94470034
:100030000C9447000C9447000C9447000C94470024
:100040000C9447000C9447000C9447000C94470014
:100050000C94470011241FBECFE5D8E0DEBFCDBF12
:1000600010E0A0E6B0E0E8E1FCE002C005900D92EF
:10007000A637B107D9F710E0A6E7B0E001C01D929E
:10008000A637B107E1F70E94A8020C940A060C9467
:1000900000003D9A379A329A319A0895806C87B958
:1000A000369A349BFECF349A84B190E045B1342F18
:1000B00020E0822B932B089540E00E946700089572
:1000C0000E948901089541E00E94F8000895843457
:1000D00009F471C0853448F4823499F1833408F00E
:1000E0004DC0813409F083C00FC0823651F1833690
:1000F00020F4813609F07BC007C0833609F43EC086
:10010000843609F074C057C0413069F42AB381E0E5
:1001100090E0AC0102C0440F551F6A95E2F7BA01A6
:10012000622B6ABB08952AB381E090E0AC0102C063
:10013000440F551F6A95E2F7BA01609562236ABBC6
:100140000895413069F427B381E090E0AC0102C02A
:10015000440F551F6A95E2F7BA01622B67BB0895F9
:1001600027B381E090E0AC0102C0440F551F6A95AF
:10017000E2F7BA016095622367BB0895413069F4E4
:1001800024B381E090E0AC0102C0440F551F6A9592
:10019000E2F7BA01622B64BB089524B381E090E0DA
:1001A000AC0102C0440F551F6A95E2F7BA01609591
:1001B000622364BB0895413069F421B381E090E08B
:1001C000AC0102C0440F551F6A95E2F7BA01622BD9
:1001D00061BB089521B381E090E0AC0102C0440FFF
:1001E000551F6A95E2F7BA016095622361BB0895D5
:1001F000843409F471C0853448F4823499F183342D
:1002000008F04DC0813409F083C00FC0823651F12F
:10021000833620F4813609F07BC007C0833609F4A9
:100220003EC0843609F074C057C0413069F42BB326
:1002300081E090E0AC0102C0440F551F6A95E2F7DF
:10024000BA01622B6BBB08952BB381E090E0AC0147
:1002500002C0440F551F6A95E2F7BA016095622308
:100260006BBB0895413069F428B381E090E0AC01A4
:1002700002C0440F551F6A95E2F7BA01622B68BBB2
:10028000089528B381E090E0AC0102C0440F551FEF
:100290006A95E2F7BA016095622368BB0895413020
:1002A00069F425B381E090E0AC0102C0440F551F12
:1002B0006A95E2F7BA01622B65BB089525B381E028
:1002C00090E0AC0102C0440F551F6A95E2F7BA01F5
:1002D0006095622365BB0895413069F422B381E0E3
:1002E00090E0AC0102C0440F551F6A95E2F7BA01D5
:1002F000622B62BB089522B381E090E0AC0102C0A2
:10030000440F551F6A95E2F7BA016095622362BBFC
:100310000895843409F451C0853440F4823439F1AD
:100320008334C0F5813409F05AC00EC08236F9F02A
:10033000833620F4813609F052C006C0833651F16D
:10034000843609F04CC039C029B381E090E0062E14
:1003500002C0880F991F0A94E2F730E082239323AA
:1003600002C0959587956A95E2F7982F38C026B315
:1003700081E090E0062E02C0880F991F0A94E2F7F0
:1003800030E08223932302C0959587956A95E2F722
:10039000982F25C023B381E090E0062E02C0880F7D
:1003A000991F0A94E2F730E08223932302C09595C7
:1003B00087956A95E2F7982F12C020B381E090E00C
:1003C000062E02C0880F991F0A94E2F730E08223BC
:1003D000932302C0959587956A95E2F7982F892F08
:1003E0000895843409F43DC0853440F48234F9F032
:1003F000833450F5813409F040C00CC08236B9F026
:10040000833618F48136C9F505C08336E9F08436A1
:10041000A1F527C02BB381E090E0AC0102C0440FEE
:10042000551F6A95E2F7BA0162276BBB089528B39E
:1004300081E090E0AC0102C0440F551F6A95E2F7DD
:10044000BA01622768BB089525B381E090E0AC0152
:1004500002C0440F551F6A95E2F7BA01622765BBD7
:10046000089522B381E090E0AC0102C0440F551F13
:100470006A95E2F7BA01622762BB08958434D9F025
:10048000853438F4823499F0833498F48134A1F4BB
:100490000CC0823661F0833618F4813669F405C0E9
:1004A000833639F0843641F406C06ABB089567BBD1
:1004B000089564BB089561BB08958434D9F08534F0
:1004C00038F4823499F0833498F48134A1F40CC068
:1004D000823661F0833618F4813669F405C08336BC
:1004E00039F0843641F406C06BBB089568BB0895AB
:1004F00065BB089562BB08958434D9F0853438F41F
:10050000823499F0833498F48134A1F40CC082369B
:1005100061F0833618F4813669F405C0833639F00A
:10052000843641F406C089B3089586B3089583B331
:10053000089580B308958EBB9FBB6DBBE29AE19A8C
:10054000E199FECF08958EBB9FBBE09A8DB30895CD
:100550000E9411040E94490080E690E00E94780405
:100560000F2EFAE0EF2EFF24F02D80E00E944E00C7
:100570009C01B901882777FD8095982F0E94F4048B
:1005800020E030E040E85EE30E9458050E94C1048C
:10059000AB01BC018A0181E090E0BA010E949B029C
:1005A00082E00E944E009C01B901882777FD80956A
:1005B000982F0E94F40420E030E040E85EE30E94BF
:1005C00058050E94C104AB01BC01EA0183E090E040
:1005D000BA010E949B02C8018C1B9D0BEC0122F109
:1005E0008A3091057CF481E066E00E94910480E30A
:1005F0000E9451048C2F805D0E94510480E00E9473
:100600005104B3CF81E066E00E949104CE01B701AE
:100610000E94E305C82F862F805D0E9451048C2F15
:10062000805D0E945104A1CF9FEFC73FD9077CF0A6
:1006300081E066E00E9491048DE20E94510480E313
:100640000E94510480E38C1B0E9451048ECF81E0F4
:1006500066E00E9491048DE20E9451048827992748
:100660008C1B9D0BB7010E94E305C82F862F805D70
:100670000E9451048C2F805D0E94510476CF84E447
:1006800060E041E00E94670084E461E041E00E9494
:10069000670084E462E041E00E94670084E463E074
:1006A00041E00E94670084E464E040E00E9467004B
:1006B00084E465E040E00E94670084E466E040E096
:1006C0000E94670084E467E040E00E94670084E4E1
:1006D00064E041E00E94F80084E465E041E00E94AB
:1006E000F80084E466E041E00E94F80084E467E0FA
:1006F00041E00E94F80008950F931F93CF93DF937A
:10070000CDB7DEB760970FB6F894DEBF0FBECDBF92
:10071000DE011196E6E6F0E080E101900D92815055
:10072000E1F700E084E460E041E00E94F80084E446
:1007300061E041E00E94F80084E462E041E00E9450
:10074000F80084E463E041E00E94F80084E4602F54
:1007500040E00E94F80010E0612F6C5F84E40E948A
:100760008901882361F4E02FF0E0EE0FFF1FEE0F08
:10077000FF1FE10FF11DEC0FFD1F818104C01F5F02
:10078000143051F70BC060960FB6F894DEBF0FBE61
:10079000CDBFDF91CF911F910F9108950F5F04306E
:1007A00009F68FEFF0CF82E660E041E00E94F800AA
:1007B0008FE99FE00197F1F700C0000082E660E05A
:1007C00040E00E94F8008FE99FE00197F1F700C038
:1007D00000000895CF93C82F6BB3807F6F70682B94
:1007E00082E60E945D0282E661E040E00E94F8003D
:1007F0000E94D3036BB3C295C07F6F706C2B82E6EF
:100800000E945D0282E661E040E00E94F8000E94E2
:10081000D3038FEC97E00197F1F700C00000CF9170
:1008200008958FEF91EEA4E081509040A040E1F751
:1008300000C0000082E66FEF0E943E0282E662E0A6
:1008400040E00E94F80082E00E94EA03AFE1BEE4CB
:100850001197F1F700C0000088E20E94EA038FECD4
:1008600097E00197F1F700C000008EE00E94EA03D4
:10087000AFECB7E01197F1F700C0000081E00E94F3
:10088000EA038FE19EE40197F1F700C0000086E0E3
:100890000E94EA03AFECB7E01197F1F700C0000047
:1008A0000895CF93C82F6BB3807F6F70682B82E65B
:1008B0000E945D0282E661E041E00E94F8000E9431
:1008C000D3036BB3C295C07F6F706C2B82E60E941E
:1008D0005D0282E661E041E00E94F8000E94D303DD
:1008E0008FEC97E00197F1F700C00000CF910895D9
:1008F000CF93DF93EC018881882331F021960E9409
:10090000510489918823D9F7DF91CF91089581E02F
:100910000E94EA038FE19EE40197F1F700C0000016
:100920000895282F2150223070F4613170F466232D
:1009300071F0813019F4962F91580AC0823041F439
:10094000962F915405C090E803C090E801C090E84C
:10095000892F0E94EA038FEC97E00197F1F700C01E
:100960000000089541E00E946700089541E00E9460
:10097000F800089540E00E94F80008950E94F101F7
:10098000089504D06894B1118DC0089570D088F096
:100990009F5790F0B92F9927B751A0F0D1F0660F6B
:1009A000771F881F991F1AF0BA95C9F712C0B13086
:1009B00081F077D0B1E0089574C0672F782F882731
:1009C000B85F39F0B93FCCF3869577956795B395C5
:1009D000D9F73EF490958095709561957F4F8F4F34
:1009E0009F4F0895E89409C097FB3EF49095809539
:1009F000709561957F4F8F4F9F4F9923A9F0F92FE5
:100A000096E9BB279395F695879577956795B79562
:100A1000F111F8CFFAF4BB0F11F460FF1BC06F5F48
:100A20007F4F8F4F9F4F16C0882311F096E911C05A
:100A3000772321F09EE8872F762F05C0662371F07B
:100A400096E8862F70E060E02AF09A95660F771F8F
:100A5000881FDAF7880F9695879597F9089557FDBF
:100A60009058440F551F59F05F3F71F04795880F1C
:100A700097FB991F61F09F3F79F0879508951216B3
:100A800013061406551FF2CF4695F1DF08C016165F
:100A900017061806991FF1CF869571056105089410
:100AA0000895E894BB2766277727CB0197F9089527
:100AB0000BD078C069D028F06ED018F0952309F0DB
:100AC0005AC05FC01124EECFCADFA0F3959FD1F3C7
:100AD000950F50E0551F629FF001729FBB27F00DEC
:100AE000B11D639FAA27F00DB11DAA1F649F662741
:100AF000B00DA11D661F829F2227B00DA11D621F90
:100B0000739FB00DA11D621F839FA00D611D221F49
:100B1000749F3327A00D611D231F849F600D211D2D
:100B2000822F762F6A2F11249F5750408AF0E1F0D0
:100B300088234AF0EE0FFF1FBB1F661F771F881F19
:100B400091505040A9F79E3F510570F014C0AACFB4
:100B50005F3FECF3983EDCF3869577956795B79504
:100B6000F795E7959F5FC1F7FE2B880F911D96952E
:100B7000879597F9089597F99F6780E870E060E09E
:100B800008959FEF80EC089500240A941616170626
:100B900018060906089500240A941216130614066E
:100BA00005060895092E0394000C11F4882352F0D1
:100BB000BB0F40F4BF2B11F460FF04C06F5F7F4F89
:100BC0008F4F9F4F089597FB092E07260AD077FD78
:100BD00004D00CD006D000201AF4709561957F4F98
:100BE0000895F6F7909581959F4F0895AA1BBB1B1A
:100BF00051E107C0AA1FBB1FA617B70710F0A61B1D
:100C0000B70B881F991F5A95A9F780959095BC013D
:080C1000CD010895F894FFCF17
:100C180074656D703D003738392F3435362A013206
:060C2800332D41303D2B8D
:00000001FF
