S010000072656365697665722E73726563BF
S11300000C942A000C9447000C9447000C9447006D
S11300100C9447000C9447000C9447000C94470040
S11300200C9447000C9447000C9447000C94470030
S11300300C9447000C9447000C9447000C94470020
S11300400C9447000C9447000C9447000C94470010
S11300500C94470011241FBECFE5D8E0DEBFCDBF0E
S113006010E0A0E6B0E0E0EAF7E002C005900D92EF
S1130070A036B107D9F710E0A0E6B0E001C01D92A8
S1130080A036B107E1F70E945C030C94CE030C94F4
S11300900000843409F471C0853448F4823499F141
S11300A0833408F04DC0813409F083C00FC0823618
S11300B051F1833620F4813609F07BC007C08336C2
S11300C009F43EC0843609F074C057C0413069F465
S11300D02AB381E090E0AC0102C0440F551F6A9539
S11300E0E2F7BA01622B6ABB08952AB381E090E07B
S11300F0AC0102C0440F551F6A95E2F7BA0160953E
S113010062236ABB0895413069F427B381E090E02B
S1130110AC0102C0440F551F6A95E2F7BA01622B85
S113012067BB089527B381E090E0AC0102C0440F9F
S1130130551F6A95E2F7BA016095622367BB08957B
S1130140413069F424B381E090E0AC0102C0440F73
S1130150551F6A95E2F7BA01622B64BB089524B374
S113016081E090E0AC0102C0440F551F6A95E2F7AC
S1130170BA016095622364BB0895413069F421B3E8
S113018081E090E0AC0102C0440F551F6A95E2F78C
S1130190BA01622B61BB089521B381E090E0AC0108
S11301A002C0440F551F6A95E2F7BA0160956223B5
S11301B061BB0895843409F471C0853448F48234F1
S11301C099F1833408F04DC0813409F083C00FC025
S11301D0823651F1833620F4813609F07BC007C0A2
S11301E0833609F43EC0843609F074C057C04130E8
S11301F069F42BB381E090E0AC0102C0440F551FB9
S11302006A95E2F7BA01622B6BBB08952BB381E0C8
S113021090E0AC0102C0440F551F6A95E2F7BA01A1
S1130220609562236BBB0895413069F428B381E083
S113023090E0AC0102C0440F551F6A95E2F7BA0181
S1130240622B68BB089528B381E090E0AC0102C042
S1130250440F551F6A95E2F7BA016095622368BBA3
S11302600895413069F425B381E090E0AC0102C007
S1130270440F551F6A95E2F7BA01622B65BB0895D6
S113028025B381E090E0AC0102C0440F551F6A958C
S1130290E2F7BA016095622365BB0895413069F4C1
S11302A022B381E090E0AC0102C0440F551F6A956F
S11302B0E2F7BA01622B62BB089522B381E090E0B9
S11302C0AC0102C0440F551F6A95E2F7BA0160956C
S11302D0622362BB0895843409F451C0853440F428
S11302E0823439F18334C0F5813409F05AC00EC028
S11302F08236F9F0833620F4813609F052C006C004
S1130300833651F1843609F04CC039C029B381E0F9
S113031090E0062E02C0880F991F0A94E2F730E09D
S11303208223932302C0959587956A95E2F7982FC7
S113033038C026B381E090E0062E02C0880F991FD2
S11303400A94E2F730E08223932302C095958795BF
S11303506A95E2F7982F25C023B381E090E0062E3A
S113036002C0880F991F0A94E2F730E08223932396
S113037002C0959587956A95E2F7982F12C020B32D
S113038081E090E0062E02C0880F991F0A94E2F7DC
S113039030E08223932302C0959587956A95E2F70E
S11303A0982F892F0895843409F43DC0853440F48E
S11303B08234F9F0833450F5813409F040C00CC024
S11303C08236B9F0833618F48136C9F505C0833610
S11303D0E9F08436A1F527C02BB381E090E0AC01AD
S11303E002C0440F551F6A95E2F7BA0162276BBB3E
S11303F0089528B381E090E0AC0102C0440F551F7A
S11304006A95E2F7BA01622768BB089525B381E0D3
S113041090E0AC0102C0440F551F6A95E2F7BA019F
S1130420622765BB089522B381E090E0AC0102C06D
S1130430440F551F6A95E2F7BA01622762BB08951B
S11304408434D9F0853438F4823499F0833498F4C0
S11304508134A1F40CC0823661F0833618F48136FD
S113046069F405C0833639F0843641F406C06ABBAA
S1130470089567BB089564BB089561BB08958434EF
S1130480D9F0853438F4823499F0833498F4813483
S1130490A1F40CC0823661F0833618F4813669F415
S11304A005C0833639F0843641F406C06BBB089529
S11304B068BB089565BB089562BB08958434D9F080
S11304C0853438F4823499F0833498F48134A1F477
S11304D00CC0823661F0833618F4813669F405C0A5
S11304E0833639F0843641F406C089B3089586B35F
S11304F0089583B3089580B3089582E660E041E0EF
S11305000E94DA008FE99FE00197F1F700C0000034
S113051082E660E040E00E94DA008FE99FE0019704
S1130520F1F700C000000895CF93C82F6BB3807F0C
S11305306F70682B82E60E943F0282E661E040E031
S11305400E94DA000E947D026BB3C295C07F6F7077
S11305506C2B82E60E943F0282E661E040E00E944A
S1130560DA000E947D028FEC97E00197F1F700C05A
S11305700000CF9108958FEF91EEA4E08150904058
S1130580A040E1F700C0000082E66FEF0E94200265
S113059082E662E040E00E94DA0082E00E94940277
S11305A0AFE1BEE41197F1F700C0000088E20E94B9
S11305B094028FEC97E00197F1F700C000008EE001
S11305C00E949402AFECB7E01197F1F700C000006D
S11305D081E00E9494028FE19EE40197F1F700C04C
S11305E0000086E00E949402AFECB7E01197F1F7A7
S11305F000C000000895CF93C82F6BB3807F6F7045
S1130600682B82E60E943F0282E661E041E00E949C
S1130610DA000E947D026BB3C295C07F6F706C2BB1
S113062082E60E943F0282E661E041E00E94DA0035
S11306300E947D028FEC97E00197F1F700C0000063
S1130640CF910895CF93DF93EC018881882331F013
S113065021960E94FB0289918823D9F7DF91CF91DB
S1130660089581E00E9494028FE19EE40197F1F7DE
S113067000C000000895282F2150223070F4613109
S113068070F4662371F0813019F4962F91580AC0E2
S1130690823041F4962F915405C090E803C090E84D
S11306A001C090E8892F0E9494028FEC97E0019793
S11306B0F1F700C00000089560E875E280E090E082
S11306C00E9469030E94BB020E9490030E94FB02E5
S11306D0FBCFDC01CB01880F991FAA1FBB1F880F1A
S11306E0991FAA1FBB1F9C01AD01220F331F441F7A
S11306F0551F220F331F441F551F60E072E18AE724
S113070090E00E94AC032150304030BD29B9539A87
S1130710549A86E880BD08955D9BFECF8CB90895F8
S11307205F9BFECF8CB10895CF93DF93EC0188815A
S1130730882379F021960E948C038FEF90E7A2E042
S113074081509040A040E1F700C0000089918823C7
S113075091F7DF91CF910895A1E21A2EAA1BBB1B3A
S1130760FD010DC0AA1FBB1FEE1FFF1FA217B30779
S1130770E407F50720F0A21BB30BE40BF50B661F8F
S1130780771F881F991F1A9469F760957095809553
S113079090959B01AC01BD01CF010895F894FFCF62
S9030000FC
