:100000000C942A000C9447000C9447000C94470071
:100010000C9447000C9447000C9447000C94470044
:100020000C9447000C9447000C9447000C94470034
:100030000C9447000C9447000C9447000C94470024
:100040000C9447000C9447000C9447000C94470014
:100050000C94470011241FBECFE5D8E0DEBFCDBF12
:1000600010E0A0E6B0E0E4EDF0E002C005900D92F3
:10007000A036B107D9F710E0A0E6B0E001C01D92AC
:10008000A036B107E1F70E9449000C9468000C9477
:100090000000D09AB898C09A20E040E031E086B3E2
:1000A000982F917080FD07C0222341F48BB38327E2
:1000B0008BBB232F03C0913009F4242F8FE798E3E3
:1000C000A1E081509040A040E1F700C00000E7CFE0
:0400D000F894FFCFD2
:00000001FF
