:100000000C942A000C9447000C9447000C94470071
:100010000C9447000C9447000C9447000C94470044
:100020000C9447000C9447000C9447000C94470034
:100030000C9447000C9447000C9447000C94470024
:100040000C9447000C9447000C9447000C94470014
:100050000C94470011241FBECFE5D8E0DEBFCDBF12
:1000600010E0A0E6B0E0ECECFBE002C005900D92E1
:10007000A03EB107D9F710E0A0EEB0E001C01D929C
:10008000A03EB107E1F70E9495020C94E4050C94A0
:10009000000040E00E94540008950E9476010895F7
:1000A00041E00E94E5000895843409F471C085346C
:1000B00048F4823499F1833408F04DC0813409F05A
:1000C00083C00FC0823651F1833620F4813609F0A7
:1000D0007BC007C0833609F43EC0843609F074C083
:1000E00057C0413069F42AB381E090E0AC0102C00E
:1000F000440F551F6A95E2F7BA01622B6ABB089557
:100100002AB381E090E0AC0102C0440F551F6A950C
:10011000E2F7BA01609562236ABB0895413069F441
:1001200027B381E090E0AC0102C0440F551F6A95EF
:10013000E2F7BA01622B67BB089527B381E090E034
:10014000AC0102C0440F551F6A95E2F7BA016095F1
:10015000622367BB0895413069F424B381E090E0E5
:10016000AC0102C0440F551F6A95E2F7BA01622B39
:1001700064BB089524B381E090E0AC0102C0440F59
:10018000551F6A95E2F7BA016095622364BB089532
:10019000413069F421B381E090E0AC0102C0440F2A
:1001A000551F6A95E2F7BA01622B61BB089521B32E
:1001B00081E090E0AC0102C0440F551F6A95E2F760
:1001C000BA016095622361BB0895843409F471C05B
:1001D000853448F4823499F1833408F04DC0813479
:1001E00009F083C00FC0823651F1833620F4813686
:1001F00009F07BC007C0833609F43EC0843609F09D
:1002000074C057C0413069F42BB381E090E0AC0179
:1002100002C0440F551F6A95E2F7BA01622B6BBB0F
:1002200008952BB381E090E0AC0102C0440F551F4C
:100230006A95E2F7BA01609562236BBB089541307D
:1002400069F428B381E090E0AC0102C0440F551F6F
:100250006A95E2F7BA01622B68BB089528B381E082
:1002600090E0AC0102C0440F551F6A95E2F7BA0155
:100270006095622368BB0895413069F425B381E03D
:1002800090E0AC0102C0440F551F6A95E2F7BA0135
:10029000622B65BB089525B381E090E0AC0102C0FC
:1002A000440F551F6A95E2F7BA016095622365BB5A
:1002B0000895413069F422B381E090E0AC0102C0BE
:1002C000440F551F6A95E2F7BA01622B62BB08958D
:1002D00022B381E090E0AC0102C0440F551F6A9543
:1002E000E2F7BA016095622362BB0895843409F491
:1002F00051C0853440F4823439F18334C0F58134FF
:1003000009F05AC00EC08236F9F0833620F48136E7
:1003100009F052C006C0833651F1843609F04CC052
:1003200039C029B381E090E0062E02C0880F991FE2
:100330000A94E2F730E08223932302C095958795D3
:100340006A95E2F7982F38C026B381E090E0062E38
:1003500002C0880F991F0A94E2F730E082239323AA
:1003600002C0959587956A95E2F7982F25C023B32B
:1003700081E090E0062E02C0880F991F0A94E2F7F0
:1003800030E08223932302C0959587956A95E2F722
:10039000982F12C020B381E090E0062E02C0880F93
:1003A000991F0A94E2F730E08223932302C09595C7
:1003B00087956A95E2F7982F892F0895843409F478
:1003C0003DC0853440F48234F9F0833450F58134F3
:1003D00009F040C00CC08236B9F0833618F481367B
:1003E000C9F505C08336E9F08436A1F527C02BB3E3
:1003F00081E090E0AC0102C0440F551F6A95E2F71E
:10040000BA0162276BBB089528B381E090E0AC018C
:1004100002C0440F551F6A95E2F7BA01622768BB14
:10042000089525B381E090E0AC0102C0440F551F50
:100430006A95E2F7BA01622765BB089522B381E0AD
:1004400090E0AC0102C0440F551F6A95E2F7BA0173
:10045000622762BB08958434D9F0853438F482343D
:1004600099F0833498F48134A1F40CC0823661F0A1
:10047000833618F4813669F405C0833639F0843642
:1004800041F406C06ABB089567BB089564BB089534
:1004900061BB08958434D9F0853438F4823499F0FE
:1004A000833498F48134A1F40CC0823661F0833631
:1004B00018F4813669F405C0833639F0843641F486
:1004C00006C06BBB089568BB089565BB089562BB09
:1004D00008958434D9F0853438F4823499F0833423
:1004E00098F48134A1F40CC0823661F0833618F49C
:1004F000813669F405C0833639F0843641F406C08C
:1005000089B3089586B3089583B3089580B3089599
:100510008EBB9FBB6DBBE29AE19AE199FECF089535
:100520008EBB9FBBE09A8DB308954F925F926F92FE
:100530007F928F929F92AF92BF92CF92DF92EF9273
:10054000FF920F931F93CF93DF93CDB7DEB728971A
:100550000FB6F894DEBF0FBECDBF0E9434050E94D7
:1005600062040F2EF0E6AF2EF0E0BF2EF02D0F2E1E
:10057000FAE0CF2EDD24F02D0F2EF4E78F2EF0E0E1
:100580009F2EF02D0F2EFBE76F2EF0E07F2EF02D2B
:100590000F2EF9E0EF2EFF24F02DEC0EFD1E0F2E96
:1005A000F8E84F2EF0E05F2EF02D81E090E00E9401
:1005B00090028F3F09F0FDC0C5010E949B0582E0BB
:1005C00061E00E94B40586010E949F04682F8A3072
:1005D000D9F38F3FC9F32FEF32E547E02150304088
:1005E0004040E1F700C00000C8010E9488028AE292
:1005F0000E9474050F5F1F4F0E30110529F7C401CB
:100600000E949B058FEF99E6A8E181509040A040A1
:10061000E1F700C000000E94AA05C3010E949B05EB
:1006200082E061E00E94B4058E010B5F1F4F0E94C3
:100630009F048A30E1F38F3FD1F32FEF32E547E09B
:10064000215030404040E1F700C00000D8018D93B8
:100650008D018AE20E9474050E151F0541F71D8168
:10066000C6010E9490021817C1F51E818BE090E030
:100670000E949002181789F51F818CE090E00E947B
:100680009002181751F518858DE090E00E949002B5
:10069000181719F583E890E00E949B052FEF39E6C3
:1006A00048E1215030404040E1F700C0000081E0C7
:1006B00090E065E00E948802CC240F2EF1E9AF2E75
:1006C000F0E0BF2EF02D6624689462F80F2EF4EA55
:1006D0008F2EF0E09F2EF02D0FC0C2010E949B05CF
:1006E0008FEF99E6A8E181509040A040E1F700C06B
:1006F00000000E94AA0559CF0E94AA05C5010E94C8
:100700009B0582E061E00E94B4058E010F5F1F4FE0
:10071000E62C0E949F048A30E1F38F3FD1F32FEF44
:1007200032E547E0215030404040E1F700C0000092
:10073000D8018D938D018AE20E947405EA9449F7ED
:1007400019818AE090E00E9490021817D1F41A8172
:100750008BE090E00E949002181799F41B818CE0C6
:1007600090E00E949002181761F41C818DE090E0E7
:100770000E949002181729F48CE990E00E949B05D2
:1007800088C0C4010E949B052FEF39E648E1215043
:1007900030404040E1F700C00000C39432E0C3168F
:1007A00009F0AACF0E94AA0586EB90E00E949B0563
:1007B00070C0CC246894C1F80F2EF1E9AF2EF0E0A0
:1007C000BF2EF02D0F2EF5E0EF2EFF24F02DEC0EB6
:1007D000FD1E0F2EFEEB8F2EF0E09F2EF02D0E94BF
:1007E000AA05C5010E949B0582E061E00E94B40554
:1007F0008E010F5F1F4F0E949F048A30E1F38F3FED
:10080000D1F32FEF32E547E0215030404040E1F78F
:1008100000C00000D8018D938D018AE20E9474050A
:100820000E151F0541F719818AE090E00E949002A1
:100830001817D1F41A818BE090E00E9490021817EB
:1008400099F41B818CE090E00E949002181761F4EB
:100850001C818DE090E00E949002181729F48CE929
:1008600090E00E949B0515C0C4010E949B052FEFDC
:1008700039E648E1215030404040E1F700C0000037
:10088000CA9409F0ACCF0E94AA0586EB90E00E94C2
:100890009B0580E090E028960FB6F894DEBF0FBE6F
:1008A000CDBFDF91CF911F910F91FF90EF90DF901F
:1008B000CF90BF90AF909F908F907F906F905F9000
:1008C0004F90089584E460E041E00E94540084E485
:1008D00061E041E00E94540084E462E041E00E9453
:1008E000540084E463E041E00E94540084E464E046
:1008F00040E00E94540084E465E040E00E9454001F
:1009000084E466E040E00E94540084E467E040E054
:100910000E94540084E464E041E00E94E50084E425
:1009200065E041E00E94E50084E466E041E00E9469
:10093000E50084E467E041E00E94E50008950F933C
:100940001F93CF93DF93CDB7DEB760970FB6F894C0
:10095000DEBF0FBECDBFDE011196EFECF0E080E10F
:1009600001900D928150E1F700E084E460E041E005
:100970000E94E50084E461E041E00E94E50084E437
:1009800062E041E00E94E50084E463E041E00E940F
:10099000E50084E4602F40E00E94E50010E0612F54
:1009A0006C5F84E40E947601882361F4E02FF0E01C
:1009B000EE0FFF1FEE0FFF1FE10FF11DEC0FFD1FEC
:1009C000818104C01F5F143051F70BC060960FB6D1
:1009D000F894DEBF0FBECDBFDF91CF911F910F9175
:1009E00008950F5F043009F68FEFF0CF81E660E0E5
:1009F00041E00E94E5008FE99FE00197F1F700C018
:100A0000000081E660E040E00E94E5008FE99FE0A1
:100A10000197F1F700C000000895CF93C82F6BB382
:100A2000807F6F70682B81E40E944A0281E661E05A
:100A300040E00E94E5000E94F6046BB3C295C07FBF
:100A40006F706C2B81E40E944A0281E661E040E015
:100A50000E94E5000E94F6048FEC97E00197F1F701
:100A600000C00000CF9108958FEF91EEA4E0815077
:100A70009040A040E1F700C0000081E66FEF0E94C7
:100A80002B0281E662E040E00E94E50082E00E94E5
:100A90000D05AFE1BEE41197F1F700C0000088E258
:100AA0000E940D058FEC97E00197F1F700C0000060
:100AB0008EE00E940D05AFECB7E01197F1F700C092
:100AC000000081E00E940D058FE19EE40197F1F79F
:100AD00000C0000086E00E940D05AFECB7E0119762
:100AE000F1F700C000000895CF93C82F6BB3807F4B
:100AF0006F70682B81E40E944A0281E661E041E068
:100B00000E94E5000E94F6046BB3C295C07F6F702F
:100B10006C2B81E40E944A0281E661E041E00E9480
:100B2000E5000E94F6048FEC97E00197F1F700C012
:100B30000000CF910895CF93DF93EC018881882343
:100B400031F021960E94740589918823D9F7DF91AD
:100B5000CF91089581E00E940D058FE19EE40197F9
:100B6000F1F700C000000895282F2150223070F4C2
:100B7000613170F4662371F0813019F4962F915829
:100B80000AC0823041F4962F915405C090E803C00A
:100B900090E801C090E8892F0E940D058FEC97E046
:100BA0000197F1F700C00000089541E00E94540051
:100BB000089541E00E94E500089540E00E94E500AC
:0C0BC00008950E94DE010895F894FFCF14
:100BCC0020456E746572206E657720706173737743
:100BDC006F7264002020446F6E6500202061676195
:100BEC00696E0020206F6B0020206E6F74206F6B7D
:100BFC0000202070617373776F726400202052495B
:100C0C0047485400202077726F6E672074727920E9
:100C1C00616761696E0020207468696566002077E1
:100C2C00726F6E672074727920616761696E00372C
:100C3C0038392F3435362A3132332D41303D2B00A3
:00000001FF
