S0100000636F756E746572312E73726563E3
S11300000C942A000C9447000C9447000C9447006D
S11300100C9447000C9447000C9447000C94470040
S11300200C9447000C9447000C9447000C94470030
S11300300C9447000C9447000C9447000C94470020
S11300400C9447000C9447000C9447000C94470010
S11300500C94470011241FBECFE5D8E0DEBFCDBF0E
S113006010E0A0E6B0E0EAE8F5E002C005900D92E9
S1130070A036B107D9F710E0A0E6B0E001C01D92A8
S1130080A036B107E1F70E9454000C94C3020C940B
S1130090000040E00E94800008950E94A20108959B
S11300A041E00E941101089581E690E061E070E072
S11300B00E94B40281E690E061E070E00E94BC021C
S11300C082E690E061E070E00E94490082E690E000
S11300D061E070E00E9450001FBC8EE08EBD1BBC2E
S11300E084E08ABD1CBC1DBCC0E108B604FEFDCF83
S11300F081E690E061E070E00E94C002C8BFF5CFE5
S1130100843409F471C0853448F4823499F1833419
S113011008F04DC0813409F083C00FC0823651F11C
S1130120833620F4813609F07BC007C0833609F496
S11301303EC0843609F074C057C0413069F42AB314
S113014081E090E0AC0102C0440F551F6A95E2F7CC
S1130150BA01622B6ABB08952AB381E090E0AC0136
S113016002C0440F551F6A95E2F7BA0160956223F5
S11301706ABB0895413069F427B381E090E0AC0193
S113018002C0440F551F6A95E2F7BA01622B67BBA0
S1130190089527B381E090E0AC0102C0440F551FDD
S11301A06A95E2F7BA016095622367BB089541300E
S11301B069F424B381E090E0AC0102C0440F551F00
S11301C06A95E2F7BA01622B64BB089524B381E017
S11301D090E0AC0102C0440F551F6A95E2F7BA01E2
S11301E06095622364BB0895413069F421B381E0D2
S11301F090E0AC0102C0440F551F6A95E2F7BA01C2
S1130200622B61BB089521B381E090E0AC0102C090
S1130210440F551F6A95E2F7BA016095622361BBEA
S11302200895843409F471C0853448F4823499F112
S1130230833408F04DC0813409F083C00FC0823686
S113024051F1833620F4813609F07BC007C0833630
S113025009F43EC0843609F074C057C0413069F4D3
S11302602BB381E090E0AC0102C0440F551F6A95A6
S1130270E2F7BA01622B6BBB08952BB381E090E0E7
S1130280AC0102C0440F551F6A95E2F7BA016095AC
S113029062236BBB0895413069F428B381E090E098
S11302A0AC0102C0440F551F6A95E2F7BA01622BF4
S11302B068BB089528B381E090E0AC0102C0440F0C
S11302C0551F6A95E2F7BA016095622368BB0895E9
S11302D0413069F425B381E090E0AC0102C0440FE1
S11302E0551F6A95E2F7BA01622B65BB089525B3E1
S11302F081E090E0AC0102C0440F551F6A95E2F71B
S1130300BA016095622365BB0895413069F422B354
S113031081E090E0AC0102C0440F551F6A95E2F7FA
S1130320BA01622B62BB089522B381E090E0AC0174
S113033002C0440F551F6A95E2F7BA016095622323
S113034062BB0895843409F451C0853440F4823486
S113035039F18334C0F5813409F05AC00EC08236B5
S1130360F9F0833620F4813609F052C006C0833692
S113037051F1843609F04CC039C029B381E090E0D2
S1130380062E02C0880F991F0A94E2F730E08223F8
S1130390932302C0959587956A95E2F7982F38C004
S11303A026B381E090E0062E02C0880F991F0A94BC
S11303B0E2F730E08223932302C0959587956A95EE
S11303C0E2F7982F25C023B381E090E0062E02C007
S11303D0880F991F0A94E2F730E08223932302C026
S11303E0959587956A95E2F7982F12C020B381E01E
S11303F090E0062E02C0880F991F0A94E2F730E0BD
S11304008223932302C0959587956A95E2F7982FE6
S1130410892F0895843409F43DC0853440F482342E
S1130420F9F0833450F5813409F040C00CC08236B1
S1130430B9F0833618F48136C9F505C08336E9F07E
S11304408436A1F527C02BB381E090E0AC0102C053
S1130450440F551F6A95E2F7BA0162276BBB0895F2
S113046028B381E090E0AC0102C0440F551F6A95A7
S1130470E2F7BA01622768BB089525B381E090E0F2
S1130480AC0102C0440F551F6A95E2F7BA01622716
S113049065BB089522B381E090E0AC0102C0440F33
S11304A0551F6A95E2F7BA01622762BB0895843446
S11304B0D9F0853438F4823499F0833498F4813453
S11304C0A1F40CC0823661F0833618F4813669F4E5
S11304D005C0833639F0843641F406C06ABB0895FA
S11304E067BB089564BB089561BB08958434D9F053
S11304F0853438F4823499F0833498F48134A1F447
S11305000CC0823661F0833618F4813669F405C074
S1130510833639F0843641F406C06BBB089568BB5A
S1130520089565BB089562BB08958434D9F0853479
S113053038F4823499F0833498F48134A1F40CC0F3
S1130540823661F0833618F4813669F405C0833647
S113055039F0843641F406C089B3089586B308950A
S113056083B3089580B3089541E00E948000089504
S113057041E00E941101089540E00E941101089594
S10D05800E940A020895F894FFCFC8
S9030000FC
