S01700004763634170706C69636174696F6E312E737265635B
S11300000C942A000C9447000C9447000C9447006D
S11300100C9447000C9447000C9447000C94470040
S11300200C9447000C9447000C9447000C94470030
S11300300C9447000C9447000C9447000C94470020
S11300400C9447000C9447000C9447000C94470010
S11300500C94470011241FBECFE5D8E0DEBFCDBF0E
S113006010E0A0E6B0E0E4E9F1E002C005900D92F2
S1130070A036B107D9F710E0A0E6B0E001C01D92A8
S1130080A036B107E1F70E9449000C94C8000C9413
S11300900000CF9360E573EC80E090E00E946B0079
S11300A0C0E38FEF94E3ACE081509040A040E1F7CF
S11300B000C000000E947F0080EE0E9488008C2F08
S11300C00E948F000E948500CF5FCA3351F780E001
S11300D090E0CF9108959B01AC0160E072E18AE762
S11300E090E00E94A600DA01C9014097A109B10974
S11300F0B695A7959795879580B911B8089584EA20
S113010086BF06B607FEFDCF089584E986BF08952D
S113011083B984E886BF06B607FEFDCF089583B988
S113012084E886BF06B607FEFDCF089582B984EC45
S113013086BF089584EC86BF06B607FEFDCF84EC27
S113014086BF06B607FEFDCF83B10895A1E21A2E3D
S1130150AA1BBB1BFD010DC0AA1FBB1FEE1FFF1F67
S1130160A217B307E407F50720F0A21BB30BE40BB7
S1130170F50B661F771F881F991F1A9469F76095FE
S11301807095809590959B01AC01BD01CF010895B8
S1070190F894FFCF0D
S9030000FC
